:020000040800F2
:10000000F09A0020AD010008CB1C0008751A00080A
:10001000C91C0008DD020008A1380008000000002B
:100020000000000000000000000000003121000876
:10003000AF050008000000002F2100083D21000846
:10004000C7010008C7010008C7010008C701000870
:10005000C7010008C7010008C7010008C701000860
:10006000C7010008C7010008C7010008C701000850
:10007000C7010008C7010008C7010008C701000840
:10008000C7010008C7010008C70100080000000000
:10009000000000000000000000000000C701000890
:1000A000C7010008C7010008C7010008C701000810
:1000B000C7010008C7010008C7010008C701000800
:1000C000C7010008C7010008C7010008C7010008F0
:1000D000C7010008C7010008C701000800000000B0
:1000E000C7010008C7010008C701000800000000A0
:1000F000000000000000000000000000C701000830
:1001000000000000C7010008C7010008C70100087F
:1001100000000000000000000000000000000000DF
:10012000C7010008C7010008C7010008C70100088F
:10013000C7010008000000000000000000000000EF
:10014000000000000000000000000000B51F0008D3
:10015000C7010008C7010008C7010008C70100085F
:10016000C7010008C70100080000000000000000EF
:10017000000000000000000000000000000000007F
:1001800000000000C701000800000000000000009F
:10019000C7010008C7010008DFF80CD000F08CF898
:1001A00000480047113A0008F09A002006488047AE
:1001B00006480047FEE7FEE7FEE7FEE7FEE7FEE74C
:1001C000FEE7FEE7FEE7FEE7C1210008990100080F
:1001D0002DE9F05F0546002092469B46884606467C
:1001E000814640241BE0284641464746224600F00F
:1001F00053F853465A46C01A914110D31146184637
:10020000224600F03AF82D1A67EB01084F462246C5
:100210000120002100F031F817EB00094E41201EAB
:10022000A4F10104DFDC484631462A464346BDE8D6
:10023000F09F40EA01039B0703D009E008C9121FA1
:1002400008C0042AFAD203E011F8013B00F8013B90
:10025000521EF9D27047D2B201E000F8012B491EBC
:10026000FBD270470022F6E710B513460A46044653
:100270001946FFF7F0FF204610BD202A04DB203A84
:1002800000FA02F1002070479140C2F1200320FAE9
:1002900003F3194390407047202A04DB203A21FAE7
:1002A00002F00021704721FA02F3D040C2F120028F
:1002B0009140084319467047064C074D06E0E06838
:1002C00040F0010394E8070098471034AC42F6D39D
:1002D000FFF766FFB8430008D8430008FEE70000B8
:1002E00010B5D0F8BC22044692F81834022B07D07F
:1002F000032B05D0052B03D0062B01D0092B13D1DE
:10030000022082F81804002382F8103482F8113495
:1003100082F8123482F8133482F8140482F8153407
:10032000C2F80034C2F804340848407DC00607D53E
:10033000204602F0FAFD2046BDE8104002F09ABCCB
:100340004888BDE8104000F04BBA0000C80000200B
:1003500030B40B46D0F8BC12DC8891F818248CB16C
:10036000022A01D0052A11D15A88C1F80024DA885E
:100370000323C1F8042481F8183481F8143430BC04
:1003800001F04FBF052A05D0022A03D030BC194620
:1003900001F03CBF012081F81904062281F81824DD
:1003A000002081F8110481F8120481F8130481F807
:1003B000142430BC7047000070B505460021D5E913
:1003C000AF4094F81824032A02D0062A42D125E02F
:1003D000D4F8042402B3042284F8182484F81114F5
:1003E00084F8121484F8131484F81424D4F8001434
:1003F00011B92178412908D0D4F80834866904F568
:10040000826201211846B04724E0D4F8083404F58C
:10041000826200218669F5E7052011E094F819044D
:10042000012801D038B115E0072084F81804012212
:1004300084F8112408E00B48007D40070AD502200B
:1004400084F8180484F8111484F8121484F813142E
:1004500084F8140404F582612846BDE87040062241
:1004600001F0F9BEC800002010B5D0F8BC12164B40
:10047000002281F819241B7D5B070BD5062081F82B
:10048000180481F8112481F8122481F8132481F8CA
:10049000140410BD082381F8183481F8112481F860
:1004A000122481F8132481F8143402F03EFDBFF3C6
:1004B0004F8F06480168064A01F4E061114301606C
:1004C000BFF34F8F00BFFDE7C80000200CED00E038
:1004D0000400FA0570B505460B46D5E9AF46C98854
:1004E000002099B394F81814022906D0092904D0E1
:1004F000C4F80404C4F8000447E05988C4F80014A0
:10050000DA88C4F80424E9B1012933D9092384F82D
:10051000183484F8110484F8120484F8130484F85D
:1005200014348802D4F80814A0F5006008447369F4
:1005300021469847D4F8042401462846BDE8704077
:1005400001F089BE032A02D9022101E023E009213A
:1005500084F8181484F8110484F8120484F813043D
:1005600084F814142070212060704120A0700322B0
:100570002146E2E70F2184F8181484F8110484F866
:10058000120484F8130484F814142846BDE870405B
:10059000194601F03BBE022184F8181484F81104B6
:1005A00084F8120484F8130484F8141470BD70479E
:1005B00070470000002229B101291AD002291BD05E
:1005C0004FF440720E490B6823F440730B600B68C4
:1005D00013430B600A6822F0F8020A600A680223DB
:1005E00003EBC00002430A60086840F480300860F2
:1005F00070474FF48072E5E74FF40072E2E70000C5
:10060000103C02401348016889050FD5016821F4A8
:1006100000710160016841F400610160016821F42A
:1006200000610160016841F40071016001684905E1
:100630000FD5016821F480610160016841F48051A7
:100640000160016821F480510160016841F480611A
:1006500001607047003C024008490A6822F4407279
:100660000A600A6842F004020A600A684FF48033A4
:1006700043EA002002430A6070470000103C024039
:10068000064A136823F440731360136813601368F9
:1006900043F001031360017070470000103C0240FA
:1006A000094910B50C6824F440740C600C6844F4DB
:1006B00040740C600C6844F001040C600260BFF3ED
:1006C0006F8F436010BD0000103C0240074A136862
:1006D00023F440731360136843F48073136013684A
:1006E00043F001031360018070470000103C02409A
:1006F000074A136823F440731360136843F40073CC
:100700001360136843F00103136001607047000039
:10071000103C02401C490868C2061C4805D5C26945
:1007200042F01002C26110220A600A68920605D5E2
:10073000C26942F00802C26120220A600A685206B9
:1007400005D5C26942F00402C26140220A600A680B
:10075000120605D5C26942F00202C26180220A6017
:100760000A68D20506D5C26942F00102C2614FF49F
:1007700080720A600A68920705D5C26942F02002B9
:10078000C2610220086070470C3C0240D009002082
:1007900070B5114904460020C86100F0B1F9064661
:1007A0000E4D09E0601C07D024B100F0A9F9801BB0
:1007B000A04201D9032070BD2868C003F2D4286884
:1007C000C00701D001202860286810F4F970F2D029
:1007D000FFF7A0FF012070BDD00900200C3C0240B3
:1007E00070B5044600F08CF90546601C02D0044840
:1007F0000078044400F084F9401BA042FAD370BD95
:10080000780000202DE9F047044622480F46017E7B
:1008100001290AD00121804601764CF25039484620
:10082000FFF7B6FF020003D02FE00220BDE8F087FB
:100830004FF0FF3038602068174D012801D0A668BE
:100840001CE0207C6168FFF707FF4846FFF7A0FF28
:100850000246286820F00400286014E0217C30461D
:10086000FFF7A8FE4846FFF793FF0200286820F034
:10087000FA00286001D03E6005E0761CD4E9021041
:100880000844B042EAD8FFF7BDFE002188F81810EE
:100890001046CBE7D0090020103C02400348016815
:1008A00041F000410160002070470000103C024010
:1008B0002DE9F0471B4E05461446307E1F468946FB
:1008C000012808D0012030764CF250384046FFF71E
:1008D0005FFF18B114E00220BDE8F0879DB1012D43
:1008E00016D0022D19D022463B464846FFF7D8FEC7
:1008F0004046FFF74DFF0C490A6822F001020A60EA
:1009000000213176E8E7E1B24846FFF7B9FEEFE7AC
:10091000A1B24846FFF7DAFEEAE721464846FFF76C
:10092000E7FEE5E7D0090020103C0240074900201F
:100930000A68002A09DA054A054B0C3A1360054B90
:1009400013600968002900DA01207047103C02405A
:1009500023016745AB89EFCD2DE9F84F00224FF019
:10096000010803254FF00F0E0B6808FA02F423402C
:10097000A34271D14E68012E05D0022E03D0112E54
:1009800001D0122E15D18668570005FA07FC26EA19
:100990000C06D1F80CC00CFA07FC4CEA060CC0F8A7
:1009A00008C04668A6430C79C4F30014944034434D
:1009B0004460C668570005FA07FC8C6826EA0C06F6
:1009C000BC403443C4604C68022C01D0122C13D1BB
:1009D000D40800EB8404A346D4F8209054074FEACF
:1009E000D46A0EFA0AF629EA06090E6906FA0AF628
:1009F00046EA0906CBF8206004680E7924EA0C0464
:100A000006F00306BE40264306604C68E40056D557
:100A10002E4C266846F480462660246822F00306A1
:100A200004F4804400942A4C3444A446D4F8084882
:100A30009607370F0EFA07F6B443264EB04201D19F
:100A4000002615E0244EB04201D1012610E0234ECD
:100A5000B04202D102260BE031E0214EB04201D17A
:100A6000032605E01F4EB04201D1042600E0072610
:100A7000BE402643CCF808681B4E34684F689C4340
:100A8000FF0300D51C433460174E361D34684F6891
:100A90009C43BF0300D51C433460134E08363468B2
:100AA0004F689C43FF0200D51C4334600E4E0C3649
:100AB00034684F689C43BF0200D51C433460521C0D
:100AC000102AFFF451AFBDE8F88F0000443802400F
:100AD00000300140000002400004024000080240D3
:100AE000000C024000100240003C01400069084038
:100AF00000D0012070470AB1816170470904FBE70B
:100B00000148806870470000780000200248816832
:100B10000278114481607047780000200B4810B5BE
:100B2000016841F400710160016841F48061016075
:100B3000016841F480710160032000F06FF800202B
:100B400000F006F800F024F8002010BD003C024040
:100B500070B50D4D04464FF47A712878B1FBF0F072
:100B60000A490968B1FBF0F000F070FF48B9102C99
:100B700007D200222146501E00F030F800206C60A1
:100B800070BD012070BD00007800002084000020AE
:100B90000A4808B5016841F480410160006800F42A
:100BA000804000900548001F016841F080510160BD
:100BB000006800F08050009008BD000044380240FA
:100BC000002809DB00F01F0201219140400980004C
:100BD00000F1E020C0F8001170470000F0B40E4BA7
:100BE0001B680C46C3F30223C3F10705042D00D98B
:100BF0000425191D072901D2002300E0DB1E012670
:100C000006FA05F1491E214099409E40761E164085
:100C10003143F0BC02F0AEBE0CED00E0064900F03E
:100C2000070208684FF6FF03184040EA0220034A13
:100C300010430860704700000CED00E00000FA056A
:100C400070470068416200207047F0B50368586A39
:100C500039B19C6A4FF4827600EB144400204D1E9B
:100C60000AE040EA024098620FE006EB8007DF5995
:100C7000401C04EB1744C0B2A842F6D344EA024039
:100C80004FF4807202EB810158500020F0BDD0F883
:100C9000040401F050BEC1EBC10200EB8202D0F8A7
:100CA0000404926C01F0BBBDC1EBC10200EB8202F7
:100CB000D0F80404D2F8082201F006BED0F80404EB
:100CC00001F03BBE70B5044601F00F00626890422F
:100CD00001D9012070BD0B0601F00F01C1EBC1016C
:100CE00004EB81014FF001024FF0000503D581F8BC
:100CF0003D203C3103E081F8FD5101F5FE718D701E
:100D0000087094F8BC03012808D084F8BC2320683C
:100D100002F058FB84F8BC53002070BD022070BD67
:100D20002DE9F04104460F0601F00F00C0EBC001B1
:100D300004EB81014FF001064FF0000503D581F867
:100D40003D603C3103E081F8FD5101F5FE71087012
:100D50008A60CB704A7802B1C880022B00D10D7135
:100D600094F8BC03012809D084F8BC63206802F021
:100D7000F1F8284684F8BC53BDE8F0810220FBE777
:100D800070B50C4601F00F05C5EBC50100EB810104
:100D9000C1F81032C1F808220023C1F8143281F8DA
:100DA000FD3181F8FC51036901F5FE71012B00D181
:100DB0000A612207027C006803D002F05BFB00207E
:100DC00070BD02F047FAFAE770B504460D4601F02F
:100DD0000F006168884201D9012070BD29064FF0DB
:100DE00000064FF0010207D5C0EBC00104EB810102
:100DF00081F83D203C3107E0C5EBC50104EB8101E2
:100E000081F8FD6101F5FE718A70087094F8BC03E9
:100E1000012807D084F8BC23206802F0FFFA2807D5
:100E200002D007E0022070BD217C04F571722068B9
:100E300002F09CFA84F8BC63002070BD70B50C46CB
:100E400001F00F05C5EBC50100EB81010B658A645C
:100E500000234B65012381F83D3001F83C5F0369B5
:100E6000012B00D10A612207027C006803D002F046
:100E700001FB002070BD02F0EDF9FAE72DE9FC5FFF
:100E800005680446284602F01EFC00287ED1206832
:100E900002F045FC002879D0206802F040FC800771
:100EA00004D52168486900F002004861206802F01A
:100EB00036FCC10604F57170009034D52068816954
:100EC00021F0100181612F6A07F00F00C0EBC00014
:100ED00004EB8006C7F3434006F5FE76022802D0F5
:100EE000062811D01AE047F6F070074216D0C7F373
:100EF0000A1217462846F16802F015FCF0683844DB
:100F0000F060B069384408E008222846009902F0F1
:100F10000AFCB069C7F30A110844B061206881690E
:100F200041F010018161206802F0F9FB00034FF0ED
:100F3000010A4FF0080B5BD50026206802F0CEFBBB
:100F40000746DFF8689351E0F8074DD0F1B220680A
:100F500002F0DDFB8046C00707D005EB4611C1F863
:100F600008AB3146204601F02BF85FEA087022D525
:100F700005EB4611C1F808BB2068016C00EB461078
:100F80000191D0F8082B494507D900E08BE1110405
:100F900003D54FF40041C0F8081B204600F073FA57
:100FA0000198484507D92069012804D1206801210A
:100FB000009A02F0DBF95FEAC86004D505EB461140
:100FC0001020C1F8080B5FEA886004D505EB4611D4
:100FD0002020C1F8080B5FEA884005D505EB4610D4
:100FE0004FF40051C0F8081B7F08761C002FABD1CE
:100FF000206802F094FB40034FF000095CD52068A4
:1010000002F065FB0746002654E0F80750D0F1B225
:10101000206802F06AFB8046C00723D006F00F026A
:101020000AFA02F0D5F834288243C5F8342805EBD3
:101030004610C0F808A9206901280FD1C6EBC600E8
:1010400004EB8000D0E911211144816436B9206D90
:1010500020B920680121009A02F088F9F1B22046F7
:10106000FFF719FE5FEA087003D505EB4611C1F8DA
:1010700008B95FEAC86004D505EB46111020C1F835
:1010800008095FEA486004D505EB46114020C1F825
:1010900008095FEA887004D505EB46110220C1F803
:1010A00008095FEA086003D53146204600F0EEFFEC
:1010B0007F08761C002FA8D1206802F030FB0028A2
:1010C00011DAD5F8040820F00100C5F8040894F8F6
:1010D000F403012829D0204600F0B9F920684169BD
:1010E00001F000414161206802F019FB00050BD5B9
:1010F000D5F80808C00702D0204600F011FA206891
:10110000416901F400614161206802F008FBC004FC
:1011100068D5D5F8040820F00100C5F804081021AE
:10112000206802F0B1FA002127E084F8F49300214E
:101130002046FFF785FDD1E705EB41104FF67F32E2
:10114000C0F80829D0F8003923F40013C0F800399A
:10115000D0F8003943F00063C0F80039C0F8082B1C
:10116000D0F8002B22F40012C0F8002BD0F8002B8E
:1011700042F00062C0F8002B491C60688842DBD84E
:10118000D5F81C0840F00110C5F81C08206B60B1B0
:10119000D5F8840840F00B00C5F88408D5F8440859
:1011A00040F00B00C5F844080CE0D5F8141842F2E2
:1011B0002B000143C5F81418D5F8100840F00B00B7
:1011C000C5F81008D5F8000820F4FE60C5F800083E
:1011D000217C2068009A02F0C9F82068416901F476
:1011E00080514161206802F09AFA800415D5206888
:1011F00001F0F0FE206802F059FAE06000F042FAD7
:101200000146227B206802F0C5FA204600F00CF966
:101210002068416901F400514161206802F07FFAC1
:10122000000707D5204600F016F92068416901F053
:1012300008014161206802F072FAC00208D500215D
:10124000204600F035F82068416901F480114161C1
:10125000206802F064FA800208D50021204600F0E0
:101260002BF82068416901F400114161206802F007
:1012700056FA400007D52046FFF709FD206841696E
:1012800001F080414161206802F049FA40070AD527
:1012900020684568680702D52046FFF70FFD2068E3
:1012A000416829434160BDE8FC9F00000A30544F6B
:1012B000D0F8040401F08EBBD0F8040401F08CBB1C
:1012C0002DE9F0418AB0040005D094F8BD032668EA
:1012D000002520B108E001200AB0BDE8F08184F8C3
:1012E000BC53204600F05EF8032084F8BD03F06B89
:1012F000C00500D42561206801F0A6FF04F11001AB
:10130000282288466846FEF794FF94E80F0001F013
:101310006FFE0226C8BB0021206802F012FA0020EE
:1013200001270EE0C0EBC00104EB810181F83D70A4
:1013300001F83C0FC880CD708D60CD60401CC0B2FC
:101340004D6161688142EDD8002011E0C0EBC00121
:1013500004EB810181F8FD5181F8FC0181F8FF5116
:10136000C1F80452C1F80852401CC0B2C1F8105272
:1013700061688142EAD8282241466846FEF759FF53
:1013800094E80F0001F0A6FE10B184F8BD63A2E757
:1013900084F8385084F8BD73206801F08DFE002079
:1013A0009AE7000010B586B0044614216846FEF79F
:1013B00059FF2068B0F1A04F2FD1194800210268D1
:1013C00042F001020260006800F0010005904FF455
:1013D000C05000900220CDE90101032003900A20B3
:1013E000049069460F48FFF7B7FA0D48001D0168E1
:1013F00041F0800101600A481430016841F48041E5
:1014000001600068002200F48040059011464320EE
:10141000FFF7E4FB4320FFF7D3FB06B010BD00004D
:10142000303802400000024070B50446C068012513
:10143000022801D0FFF7BCF82946D4F8040401F0D3
:1014400021FBD4F80404BDE8704001F0DCBAD0F808
:10145000040401F001BBD0F8040401F007BB10B58F
:10146000044690F8BC0301280BD0012084F8BC038B
:1014700084F83810206802F07BF9002084F8BC035F
:1014800010BD022010BDD0F8042400F57171104683
:1014900001F004BB10B50446006894F8BC130129A0
:1014A00006D0012184F8BC13A16A012902D008E00A
:1014B000022010BDA169012903D0816B41F4803164
:1014C0008163206802F0CAF8206801F0E7FD00207F
:1014D00084F8BC0310BD70B50446006894F8BC13D2
:1014E000054601290FD0012184F8BC1301F0ACFEA0
:1014F000206801F0E1FD1021206802F0C5F8A06A23
:10150000012802D008E0022070BDA069012803D0A4
:10151000A86B20F48030A863002084F8BC0370BD61
:1015200010B50446D0F8040401F003FB2068D0F89D
:10153000001E41F00101C0F8001E206A002804D0FE
:101540000248016841F00601016010BD10ED00E0A5
:101550002DE9F0470E46050065D0DFF81481D8F874
:101560000000F7B200F00F00B04207D288F8007018
:10157000D8F8000000F00F00B04254D128683D4C6C
:10158000810712D5400703D5206840F4E050206061
:101590002878000703D5206840F460402060206868
:1015A000A96820F0F000084320602878C0072DD0FB
:1015B000304968680839012812D0022813D003285E
:1015C00011D00968890700292DDA216821F003016B
:1015D00001432160FFF794FA814641F2883A0EE018
:1015E00009688903EFE709688901ECE7FFF788FAE2
:1015F000A0EB0901514502D90320BDE8F08720681E
:10160000696800F00C00B0EB810FEFD1D8F8001042
:10161000404601F00F01B14207D90770006800F0A1
:101620000F00B04201D00120E7E72878400705D538
:101630002068E96820F4E05008432060287800071B
:1016400006D52068296920F4604040EAC100206086
:1016500000F01EF82168084AC1F30311515CC8402C
:101660000649086006480068FFF772FA0020C4E7E0
:10167000003C0240083802404C3B00088400002037
:101680007C000020014800687047000084000020B2
:10169000154810B5006810F00C02144813D0411022
:1016A000042A0FD0082A0ED10F4C241F2268236869
:1016B00002F03F025B0207D52068C0F38810A0FB50
:1016C000010106E0084610BD2168C1F38811A1FBA5
:1016D00000010023FEF77CFD2168C1F30141491C94
:1016E0004900B0FBF1F010BD083802400024F400BE
:1016F0002DE9F84F04006ED02078DFF83C93C00746
:10170000A9F104054AD009F104000168C1F381017F
:10171000012908D00068C0F3810002280AD1D9F855
:101720000000400206D52868800337D5606800288D
:10173000E1D033E06068B0F5803F10D0B0F5A02F65
:10174000286810D020F480302860286820F4802099
:1017500028606068A8B1FFF7D3F906460DE0286855
:1017600040F48030F4E740F480202860F7E700BFC1
:10177000FFF7C6F9801B642873D828688003F7D563
:101780000CE0FFF7BDF9064605E000BFFFF7B8F92A
:10179000801B6428F0D828688003F7D42078DFF80D
:1017A0009C8280074FF0000A3ED5A348001D0168C7
:1017B00011F00C0F08D00068C0F3810002280BD193
:1017C000D9F80000400207D42868800716D5E068E1
:1017D000012800D112E02BE1E068B8B10120C8F87F
:1017E0000000FFF78DF9064605E000BFFFF788F916
:1017F000801B0228C0D828688007F7D5286821698F
:1018000020F0F80040EAC10028600DE0C8F800A010
:10181000FFF776F9064604E0FFF772F9801B02280D
:101820001FD828688007F7D42078000722D5824E79
:1018300083486169703671B101210160FFF760F979
:10184000074604E0FFF75CF9C01B022809D830689E
:101850008007F7D50EE0C0F800A0FFF751F9074662
:1018600005E082E0FFF74CF9C01B02287DD8306804
:101870008007F7D42078400768D5DFF8BCB100278F
:101880000BF13C0BDBF80000C0000BD4DBF80010C0
:1018900041F08051CBF80010DBF80000012700F088
:1018A00080500090674E3068C00510D4306840F416
:1018B00080703060FFF724F9009005E0FFF720F911
:1018C0000099401A022850D83068C005F6D55A4E03
:1018D000A0686C3601280FD00528306810D020F0A1
:1018E00001003060306820F004003060A068B8B1BA
:1018F000FFF706F900900FE0306840F00100F4E7D0
:1019000040F004003060F7E7FFF7FAF80099411A59
:1019100041F28830814266D830688007F4D50EE005
:10192000FFF7EEF8009007E0FFF7EAF80099411A98
:1019300041F28830814256D830688007F4D42FB104
:10194000DBF8001021F08051CBF80010A069C8B37B
:101950003949091D0968C1F3810102294AD00228C9
:10196000504607D0C8F8600000E03CE0FFF7C8F838
:1019700004463BE04746C8F86000FFF7C1F806465A
:1019800005E000BFFFF7BCF8801B02282BD82868B1
:101990008001F7D4D4E907010843A16A2A4A49081B
:1019A00002EB0141626A41EA8211084394F82C106B
:1019B00040EA0161C9F8001001203866FFF7A0F87D
:1019C000044606E036E000BFFFF79AF8001B022845
:1019D00009D828688001F7D52CE000BFFFF790F800
:1019E000001B022802D90320BDE8F88F2868800177
:1019F000F4D41FE00128F7D0D9F80000E26900F420
:101A00008001914214D1226A00F03F0191420FD12E
:101A100047F6C071626A0140914209D1A26A00F49E
:101A20004031914204D1E16A00F07060884201D0F7
:101A30000120D9E70020D7E70438024000004742E0
:101A4000800E4742007000400000FFFF10B5401EAE
:101A5000B0F1807F01D3012010BD4FF0E024606120
:101A60000F21601701F086FF0020A0610720206190
:101A7000002010BDFEE70000F0B500230A24302549
:101A800037261F4611E000BFB4EB107F02D905EBEB
:101A9000107C01E006EB107C01F813C001EB430C55
:101AA00000015B1C8CF80170DBB29342ECD3F0BDFB
:101AB00010B5FEF7F3FE002010BD000010B50022A7
:101AC00086B0A0F100644FF48043114605929C4219
:101AD0002BD31D4C04449C4201D2012125E01B4C18
:101AE00004449C4201D202211FE0194C04449C4250
:101AF00001D2032119E0174B0344B3F5803F01D213
:101B0000042112E0144BC4184FF400339C4201D25C
:101B100005210AE0114C04449C4201D2062104E054
:101B20000F4C2044984200D207210220049001204B
:101B3000CDE90210009205A96846FEF763FE002871
:101B400000D0012006B010BD00C0FFF70080FFF7F5
:101B50000040FFF70000FFF70000FEF70000FCF771
:101B60000000FAF70020322353709070D070704755
:101B700010B5FEF7DBFE0249F3200860002010BD1F
:101B80000C3C024010B5002304E000BF10F8014BEC
:101B9000CC545B1C9342F9D3084610BD2DE9F041AB
:101BA00017460D460646002410E032592919002335
:101BB0000220FEF77DFE10B10120BDE8F081305912
:101BC0002959884201D00220F7E7241DBC42ECD3FA
:101BD0000020F2E72DE9F04186B014216846FEF7B7
:101BE00041FB22480025016841F080010160016845
:101BF00001F080010591016841F002010160016876
:101C000001F002010591016841F0010101600068E5
:101C1000DFF85C8000F001000590002201214046C1
:101C2000FEF769FF4FF44077012239464046FEF740
:101C300062FF0124022603950094CDE9014669461E
:101C40004046FEF789FE0096CDE9015469464046BC
:101C5000FEF782FE0320CDE90240CDE9007469461B
:101C60004046FEF779FE06B0BDE8F081303802400C
:101C70000004024010B500220F49104800F0ACFDEE
:101C800008B1FEF795FC0E490C4800F07AFF08B148
:101C9000FEF78EFC0B49094800F0C2FB08B1FEF7C5
:101CA00087FC064800F0E6FF002803D0BDE810409E
:101CB000FEF77EBC10BD00000C000020F8000020E4
:101CC0008C0000205C000020FEE7704770B5002407
:101CD000002104F1B00000F066F90021084600F090
:101CE00062F90021102000F05EF90025012100209A
:101CF00000F059F96D1CEDB2802DF7D3641CE4B2ED
:101D0000082CE5D370BD000070B50122114D5402BE
:101D100021462846FEF7EFFE012001F04AFE01228F
:101D2000160231462846FEF7E6FE012001F041FE8C
:101D3000002231462846FEF7DEFE012001F039FE82
:101D4000002221462846FEF7D6FEBDE8704001205D
:101D500001F02FBE0004024070B50E4C012251026A
:101D60002046FEF7C8FE012001F023FEA515002243
:101D700029462046FEF7BFFE012001F01AFE01228F
:101D800029462046FEF7B7FEBDE87040012001F06D
:101D900010BE00000004024070B50122094D54023B
:101DA00021462846FEF7A7FE012001F002FE002290
:101DB00021462846FEF79FFEBDE87040012001F055
:101DC000F8BD00000004024010B50021AE2000F074
:101DD000EAF80021084600F0E6F80021102000F0A3
:101DE000E2F80021402000F0DEF80021B02000F0F1
:101DF000DAF80021812000F0D6F800214D2000F013
:101E0000D2F80021822000F0CEF80021084600F030
:101E1000CAF80021A12000F0C6F80021A22000F09D
:101E2000C2F80021A42000F0BEF80021A62000F096
:101E3000BAF80021A82000F0B6F800211F2000F019
:101E4000B2F80021C82000F0AEF80021D32000F045
:101E5000AAF80021102000F0A6F80021D52000F0FB
:101E6000A2F80021B12000F09EF80021D92000F056
:101E70009AF80021622000F096F80021DB2000F0A3
:101E800092F800213F2000F08EF80021DB2000F0C6
:101E90008AF800213F2000F086F80021322000F06F
:101EA00082F80021AD2000F07EF800218B2000F0A8
:101EB0007AF80021BDE81040AF2000F074B810B5EA
:101EC0000A460446002102F1B00000F06CF8102030
:101ED00040EA1410002100F066F804F00F00BDE89D
:101EE0001040002100F05FB82DE9F041203A0024B5
:101EF0000D468046D6B27F2803D900208D1C80462F
:101F0000EDB2102B294610D0FFF7D9FF164906EB8A
:101F1000460001EB40050121285D00F044F8641CF7
:101F2000E4B2062CF7D3BDE8F081FFF7C8FF0F4FEE
:101F300004EB06100121385C00F035F8641CE4B2B3
:101F4000082CF5D36D1CE9B24046FFF7B8FF00241A
:101F500004EB061038440121007A00F024F8641CD8
:101F6000E4B2082CF4D3DEE75C3B0008843D0008B3
:101F70002DE9F041984617460E46044600250DE02F
:101F8000434631462046FFF7AFFF0834E4B2782CD1
:101F900002D90024B61CF6B26D1CEDB27A5D002A9F
:101FA000EED1BDE8F081C0B209B101F0CCBC01F0C6
:101FB000B3BC00000148FEF761BF0000C803002069
:101FC0002DE9F04103680D4604461E6C03EB4511F4
:101FD000D1F8080BD4F810E04FF400474FF0200C74
:101FE00004F57172BEF1010F09D0DFF898E0764573
:101FF00039D1020432D500BFC1F8087B3FE0224B43
:102000005FEA007E04D59E4239D90004F4D436E05C
:102010005FEA806E02D5C1F808CB30E010F0280FDF
:102020002DD19E4201D90004E6D4C5EBC50004EBD6
:102030008000D1F8101BD0F80432C1F31201591AF4
:10204000C0F81412D0F808121944C0F8081295B953
:10205000D4F8100278B9012120680AE080060AD578
:10206000C1F808CB07E035B9D4F8100218B900213F
:10207000184601F07BF9E9B22046FEF715FE002074
:10208000BDE8F0810A31544F0A30544F2DE9F84F22
:102090000E46C1EBC60100EB810481460568D4E918
:1020A00014103C34884202D90120BDE8F88F081A88
:1020B000A168814200D20846C01C870805EB46187B
:1020C0001BE000BFA0EB010AA068504500D2824689
:1020D0000AF10300870899F8100000901FFA8AF3AC
:1020E000F2B22846E16801F0C9FBE16801EB0A00A1
:1020F000E060A16901EB0A00A061D8F8180980B27C
:10210000B84205D3D4E90501814201D20028D9D1D2
:10211000D4E90501884208D806F00F010120884063
:10212000D5F834188143C5F834180020BDE770474E
:1021300070470178407841EA00207047FEF7E6BC1E
:1021400030B593B030216846FEF78CF814210CA806
:10215000FEF788F818480025016841F080510160B9
:10216000006800F0805011901448016841F440412B
:1021700001600068022400F44040119001200090AA
:10218000000401908001CDE9064008AA04206021E6
:1021900082E813000B906846FFF7AAFA0CA90F20FB
:1021A00081E83100E002CDE90F0503210CA8FFF71B
:1021B000CFF913B030BD000040380240007000403D
:1021C0000548016841F47001016003494FF0006067
:1021D000803908607047000088ED00E010B5D0F845
:1021E000B8220AB152689047002010BD134610B5BE
:1021F0000A46002100F0FEFB002010BD134610B57A
:102200000A46002100F09EFC002010BD10B50446D7
:10221000802100F073FC2046BDE81040002100F052
:102220006DBC10B50323C0F85821C0F89432C0F833
:102230005C2113460A46002100F0DCFB002010BDA3
:1022400010B505210023C0F894121A46194600F073
:10225000D1FB002010BD10B502238261C0F894327A
:10226000C26113460A46002100F06CFC002010BD3C
:1022700010B504210023C0F894121A46194600F044
:1022800061FC002010BD70B5D0F8BC120446B9B195
:102290000025C1F800540220C1F8045481F8180444
:1022A00081F8105481F81404D4F8C00204F52F7496
:1022B00080688047206801F083FB0020256070BDA6
:1022C000022070BD002070477CB50246D2E9AF40C5
:1022D00094F81814042902D0072958D05AE0D4F8E9
:1022E0000014002579B1012931D98902D4F80824D4
:1022F000A1F5006111440369D4F8042420469847ED
:1023000028B303207CBDD4F8041401291FD005296B
:102310000BD0C4F804540120ADF806008DF800502D
:1023200069461046FFF772FF11E02178212902D09B
:1023300041291CD00BE06078A17800EB0120E17806
:1023400000EB0140217900EB0160C4F80804C4F8F7
:1023500004540320C4F8005484F8180484F8115479
:1023600084F8125484F8135484F8140412E0617849
:10237000A27801EB0221E27801EB0241227901EB24
:102380000261C4F80814C26808469047B8E71046CE
:10239000FEF76AF800207CBD1B21018000487047D1
:1023A000C80000200A21018000487047E400002096
:1023B00010B5D0F8C002062905D80068034900F01E
:1023C000DBF9024810BD002010BD0000F00900201C
:1023D00010B5044640F21C4001F082FB0021C8B158
:1023E000C4F8BC0200F580600C4AC0E9022101601B
:1023F0004160417602220276017441748174C17495
:1024000002754175D4F8C00240688047002800D0AA
:10241000032010BD0220C4F8BC1210BD00800008CB
:1024200019B1C0F8C0120020704703207047002087
:1024300070470000F8B500240D46D0F8BC12ADF886
:1024400000402F7826462246234617F0600760D0CA
:10245000202F72D16E780222072E6ED2DFE806F0AE
:102460005504080C0F3236002946FDF771FF87E04E
:102470002946FEF72FF883E0FDF79EFF80E091F8F4
:1024800018040A2811D00A2081F818040E2281F8B5
:10249000102481F8113481F8123481F8133481F852
:1024A000140400BF81F815346AE081F8182481F81B
:1024B000103481F8113481F8123481F8133481F822
:1024C0001424EFE7012201F5836142E091F818043A
:1024D000022807D0032805D0052803D0062801D0FC
:1024E00009284DD181F8182481F8103481F811346D
:1024F00081F8123481F8133481F8142481F81534EA
:10250000C1F80034C1F804343AE02946FDF7E8FE8A
:1025100036E06B78062B11D003DC3BB1012B2BD1BD
:102520002EE00A2B18D00B2B26D11DE090F89C1220
:10253000032921D1022269460BE01DE0698821238D
:10254000B3EB112F04D1EA88104E092A00D90922D1
:102550003146FFF780FE13E090F89C22032A0BD14E
:10256000D1F80C140122F4E76A8812F0FF0F03D1AE
:1025700090F89C32032B05D02946FFF747FE032431
:102580002046F8BDD0B2C1F80C04F9E7DA0000200B
:1025900010B50A46024903A000F0EEF8004810BD4D
:1025A000D007002044465520436F6E6669670000DF
:1025B00012200880004870472C00002010B50A4601
:1025C000024903A000F0D8F8004810BDD007002051
:1025D00044465520496E746572666163650000006B
:1025E00004200880004870472800002010B50A46E3
:1025F000024903A000F0C0F8004810BDD007002039
:1026000053544D6963726F656C656374726F6E6964
:102610006373000010B50A46024903A000F0ACF84D
:10262000004810BDD007002053544D333220446F72
:10263000776E4C6F6164204669726D7761726520B8
:10264000557064617465000010B51A2008800A484E
:102650000168001D0468001D0068081809D00822E0
:102660000649FFF709FA0549042210312046FFF711
:1026700003FA0248801E10BD107AFF1F420000209E
:10268000F8B504460020ADF8000048880D46010A60
:10269000082968D2DFE801F0670409176767454E2B
:1026A000D4F8B412207C0A6819E0207C02260028A5
:1026B000D4F8B80205D0C16A68468847014646701A
:1026C00042E0816AF8E7C1B2062921D2DFE801F0D1
:1026D000030A1014181CD4F8B402426805E06946D5
:1026E000904725E0D4F8B4028268DAB3207CF6E79C
:1026F000D4F8B402C268F8E7D4F8B4020269F4E787
:10270000D4F8B4024269F0E7D4F8B4028269ECE785
:10271000D4F8B8128B6B2BB3C1B26A4620469847E7
:1027200006E0207CF0B9D4F8B802416B68468847CF
:10273000014609E0207CA8B9D4F8B802016B6846CC
:102740008847014607204870EA888AB1BDF8000032
:1027500040B1824200D90246ADF800202046FFF782
:102760007AFDF8BDFFE729462046FFF74FFDF8E761
:102770002046FFF77DFDF4E770B5002300281ED04A
:102780000025044602E06D1CEDB2641C2678002E84
:10279000F9D1022404EB450414801278CA545B1C5E
:1027A0000322CA5400245B1C06E0CA545B1CDAB244
:1027B0008C54521CD3B2401C0278002AF5D170BD53
:1027C00001004FF0000004D0012901D0022901D0FE
:1027D000032070470120704730B4A0B1D0F8B84250
:1027E00000230CB1C0F8B832D0F8CC420CB1C0F81C
:1027F000CC3209B1C0F8B412012180F89C120270E9
:1028000030BC00F0A7B830BC0320704710B5D0F83A
:10281000C402FEF757FABDE81040FFF7D1BF70B50C
:102820001646044649B1D4F8B80242691AB194F880
:102830009C02032842D0032070BDD4F894120025D6
:1028400004F11400022932D1D0E902318B4206D9B9
:102850005A1A826031462046FFF7D0FC0FE09942B9
:1028600014D14068884211D3D4F8981288420DD20E
:10287000002211462046FFF7C1FCC4F898520023FD
:102880001A461946204600F0B5F810E0D4F8B80210
:10289000C16829B194F89C02032801D120468847D9
:1028A0008021204600F02AF92046FFF7C9FC94F861
:1028B000A002012806D184F8A05203E020469047E8
:1028C0000028B9D1002070BD10B51346044649B1A7
:1028D000D4F8B80282691AB194F89C02032824D073
:1028E000032010BDD4F8941204F5AA70032920D156
:1028F000D0E9021291420AD98A1A8260C0688242E3
:1029000000D3024619462046FFF770FC11E0D4F8C8
:10291000B802016929B194F89C02032801D120462C
:1029200088472046FFF7A4FC03E020469047002894
:10293000D7D1002010BD0020704710B5012180F8CC
:102940009C12D0F8B82212B1526801799047002049
:1029500010BD000010B5017839BB15490222C1F83D
:102960000404C0F8C4124FF0A0400860042048607E
:102970000020C1E90320C1E9062008624862C8625C
:1029800008630846FEF79CFC08B1FDF711FE8021A4
:102990000748FEF756F9402200210548FEF755F991
:1029A000802201210248FEF750F9002010BD0000EE
:1029B000C80300200A0601F07F01D0F8C402C1EB71
:1029C000C10100EB810002D590F83E00704790F8FD
:1029D000FE017047002070470020704710B51C466C
:1029E0001346D0F8C4022246FEF79AF9BDE810401B
:1029F000FFF7E6BE10B5D0F8C402FEF7C1F9BDE896
:102A00001040FFF7DDBE70B50125044680F89C52EA
:102A10000020C4F894026060C4F8A402D4F8BC0298
:102A200028B1D4F8B802002142682046904700221D
:102A3000402311462046FFF7D1FF4026A4F86451F9
:102A40003346002280212046C4F86061FFF7C6FFAC
:102A5000A5840020266270BD90F89C12042903D141
:102A600090F89D1280F89C120020704710B590F8E5
:102A70009C12032904D1D0F8B812C96901B1884762
:102A8000002010BD01740020704710B5D0F8C402BA
:102A9000FEF7E5FCBDE81040FFF792BE70B50446B6
:102AA00000F2AA20054600F056F80120C4F894026E
:102AB000B4F8B002C4F8980294F8AA0210F01F010A
:102AC0000AD001290ED0022912D000F08001204640
:102AD000BDE8704000F012B829462046BDE87040BD
:102AE00000F0CAB829462046BDE8704000F0F4B9AD
:102AF00029462046BDE8704000F048B910B5D0F82E
:102B0000C402FEF761F9BDE81040FFF759BE10B5E9
:102B1000D0F8C402FEF7BEFCBDE81040FFF750BE7F
:102B200010B5D0F8C402FEF7D6FCBDE81040FFF7A0
:102B300047BE90F89C1280F89D12042180F89C12E8
:102B40000020704710B5D0F8C402FEF777F9BDE851
:102B50001040FFF735BE70B5054611F8010B28701F
:102B6000087868704C1C2046FFF7E3FA6880A41CC4
:102B70002046FFF7DEFAA880A01CFFF7DAFAE8800B
:102B800070BD38B504460020ADF8000041B1C4F86E
:102B9000B812896A68468847C4F8CC02002038BD5C
:102BA000032038BD02460320D2F8B832002B02D0F1
:102BB0001B681046184770472DE9F0410F462C4E10
:102BC0008978002504463170012906D93946204606
:102BD000FFF71CFB0320BDE8F08194F89C0202285B
:102BE0000CD003281DD039462046FFF70FFB317863
:102BF0002046FFF7F3FA03252846ECE799B3204671
:102C00006160FFF7CFFF050004D039462046FFF78B
:102C1000FDFAF1E72046FFF72BFB032084F89C0226
:102C2000EAE74FF00208C1B1606888421BD0C1B228
:102C30002046FFF7D3FA317820466160FFF7B2FFF4
:102C4000050010D039462046FFF7E0FA21792046EA
:102C5000FFF7C4FA84F89C82CEE784F89C82204671
:102C60006160FFF7BBFA2046FFF702FBC4E70000F4
:102C700088000020FFF74BBF2DE9F0410A780025BE
:102C800012F0600208D0202A01D0402A71D1D0F879
:102C9000B8229268904731E04B78002201260A2B37
:102CA00067D2DFE803F0415E6658660805662D29A5
:102CB000FFF7E6FC5FE004468888D8B9C888C8B941
:102CC0004888802816D200F07F0794F89C020328D9
:102CD00010D084F89E7239462046FFF7D6FE204673
:102CE000FFF7C6FA1FB1022084F89C0243E084F883
:102CF0009C6240E020463CE0FFF75EFF05463AE07C
:102D0000CB88012B35D190F89C32012B04D0022BBB
:102D100002D0032B2DD104E08260012200F10801D2
:102D200016E00122011D13E090F89C22012A03D035
:102D3000022A01D0032A1CD1CA88022A19D1C660EE
:102D4000D0F8A41209B10321C160022200F10C01E4
:102D5000FFF781FA0FE0498801290CD1C0F8A4627D
:102D600011E090F89C32012B08D0022B06D0032BE7
:102D700004D0FFF74BFA2846BDE8F08149880129C5
:102D8000F9D1C0F8A422FFF773FAF4E72DE9F04176
:102D90000D46044628780027097910F060000BD012
:102DA000202801D0402873D1D4F8B802294682687F
:102DB0002046904707468CE06878D8B3012822D097
:102DC000032865D194F89C02022802D003287CD104
:102DD0000BE0002979D0802977D02046FFF78EFEBE
:102DE00080212046FFF78AFE73E0688838B931B148
:102DF000802904D0E88810B92046FFF77FFE2046DE
:102E0000FFF736FA65E094F89C020228E1D0032827
:102E10005BD16888D8BB480602D02046FFF7F6FC95
:102E20002046FFF725FAD4F8B802294682682046E2
:102E300090474EE0FFE794F89C020026022802D05B
:102E4000032842D111E009B180293ED1080601F0E2
:102E50007F0000EB800004EB800101D5143101E01C
:102E600001F5AA7102220E602BE0080601F00F00A6
:102E700000EB800004EB80000BD5808C40B101F0AA
:102E80007F0000EB800004EB800514350CE020E0AF
:102E90001BE0B0F86401C0B101F07F0000EB8000DE
:102EA00004EB800505F5AA7541B1802906D02046BE
:102EB000FFF780FD10B10120286000E02E600222A3
:102EC00029462046FFF7C7F903E029462046FFF7C9
:102ED0009DF93846BDE8F08170B5064608780024B3
:102EE0000D4610F0600003D0202801D0402817D1F3
:102EF00096F89C02012803D0022801D003280FD1A4
:102F0000287901280CD8D6F8B80282683046904754
:102F10000446E888204306D13046FFF7A9F902E0CD
:102F20003046FFF773F9204670BD10B50446D0F85F
:102F3000B80218B14268217920469047D4F8CC02F3
:102F400010B10020C4F8CC022046BDE81040FFF7C5
:102F5000E7BD000070B50A78012302F00F054E7836
:102F6000AB401B4CD0F81C58012E17D045EA034348
:102F7000C0F81C3800EB4210D0F8002B12040BD420
:102F8000D0F8002B0B89C978C3F30A031A4344EA2B
:102F900081410A43C0F8002B002070BD9BB21D4345
:102FA000C0F81C5800EB4210D0F800391B04F3D4D1
:102FB000D0F800390D89C978C5F30A0589042B4377
:102FC00041EA82510B432343C0F80039E4E7000093
:102FD00000800010D0F800196FF30A01C0F8001942
:102FE000D0F8041841F48071C0F80418002070472C
:102FF00070B5044606990A9E049D0D98012916D0C5
:10300000E06840F04000E060204600F02BF8A16B43
:103010001EB321F48031A163012D07D1A16841F0D5
:103020000601A160A16841F02001A16070BDA16B03
:1030300021F48031A163E168094A1140E160E1684F
:1030400021F44011E160012803D1E06840F48010D0
:10305000E060204600F006F8DEE741F48031DAE770
:10306000BFFFBDFF01220C4902E0521C8A420BD86F
:103070000369002BF9DA026942F0010202610122C0
:1030800004E0521C8A4201D9032070470369DB0720
:10309000F7D1002070470000400D0300D0F8001E5B
:1030A00021F00301C0F8001ED0F8041821F002013D
:1030B000C0F8041800207047D0F8001E21F003016A
:1030C000C0F8001ED0F8041841F00201C0F804183E
:1030D000002070472DE9F04F00250E460446DDF82C
:1030E0002CC0DDF824B0109F2846294604EB80024E
:1030F000C2F80411401C0F28F8D32046C7B1806BDA
:1031000020F40012A263A06B40F40022A2630846E0
:103110008846C4F8000ED4F800182046C4F80018F9
:10312000BCF1010F16D0D0F8001841F0030116E0F1
:10313000D0F8040840F00202C4F80428A06B40F460
:103140000012A263A06B20F40022A263A06B20F403
:103150008022DBE7D0F800180BB141F00101C0F884
:103160000018102100F090FA00B10125204600F06F
:103170007BFA00B101254046C4F81088C4F81488D1
:10318000C4F81C8800214FF000694FF0904A4FF6B8
:103190007F3314E004EB4112D2F800C9BCF1000FF8
:1031A00006DA11B1C2F800A904E0C4F8009901E000
:1031B000C2F80009C2F81009C2F80839491C8E4249
:1031C000E8D8002115E000BF04EB4112D2F800CB93
:1031D000BCF1000F06DA11B1C2F800AB04E0C4F88C
:1031E000009B01E0C2F8000BC2F8100BC2F8083BCC
:1031F000491C8E42E8D8D4F8101821F48072C4F823
:103200001028A0616FF080406061BBF1000F03D116
:10321000A06940F01000A061A06909490843A061BD
:103220000C9818B1A06940F00800A061012F03D1EB
:10323000A06904490843A0612846BDE8F08F00005A
:1032400000383C8004000040816821F00101816069
:103250000020704770B50D784E78434CEBB200EB10
:103260004313012E1FD0D3F8100B6FF31200C3F8D5
:10327000100BD3F8100B2040C3F8100B486908B1AD
:1032800088684861D3F8100B40F40020C3F8100B95
:10329000D3F8100B8C68C4F312042043C3F8100B4E
:1032A000012A55D058E04E69002ED3F8106932D06B
:1032B0006FF31206C3F81069D3F810692640C3F8FB
:1032C00010694E698C68A64200D94C61D3F8104948
:1032D00044F40024C3F81049D3F810494E69C6F3EA
:1032E00012063443C3F81049012A22D000EB4512DC
:1032F000D2F8003943F00443C2F800394A6932B3C6
:10330000D0F83428097801F00F03012199400A43CD
:10331000C0F8342826E02640C3F81069D3F81049D5
:1033200044F40024C3F81049D3F810496FF3120491
:10333000D8E7096919B100EB4512C2F8141900EB7E
:103340004510D0F8001941F00441C0F8001909E017
:10335000C86808B1C3F8140BD3F8000B40F0044060
:10336000C3F8000B002070BDFFFF07E010B5036C31
:10337000134CA34203D9D0F8003B002B1EDB0023E3
:10338000C0F8103BD0F8103B43F40023C0F8103BCA
:10339000D0F8103B43F01803C0F8103BD0F8103BB6
:1033A00043F0C043C0F8103B012907D1C0F8142BEB
:1033B000D0F8001B41F08021C0F8001B002010BD98
:1033C0000A30544F4A780B78012A00EB43100BD097
:1033D000D0F8002B22F40012C0F8002BC978032982
:1033E00014D0022912D017E0D0F8002922F40012DC
:1033F000C0F80029C978032901D002290CD1D0F8DE
:10340000001941F08051C0F8001905E0D0F8001B08
:1034100041F08051C0F8001B002070470A784B78BB
:10342000D1B200EB4110012B12D0D0F8001B0029C3
:1034300006DB2AB1D0F8001B21F08041C0F8001B48
:10344000D0F8001B41F40011C0F8001B00207047A9
:10345000D0F80019002906DB2AB1D0F8001921F0B4
:103460008041C0F80019D0F8001941F40011C0F8EB
:103470000019EBE7F8B50C784F78774DE3B26FF0B1
:10348000604600EB4313012F26D0D3F8104B6FF3A7
:103490001204C3F8104BD3F8104B2C40C3F8104B58
:1034A0004C69002C74D08D682C44641EB4FBF5F478
:1034B000D3F8105BA4B206EAC4463543C3F8105BE8
:1034C000D3F8105B8E686643C6F312042543C3F835
:1034D000105B012A71D0A6E04F691FB3D3F81079B1
:1034E0006FF31207C3F81079D3F810792F40C3F89F
:1034F00010794F698D682F447F1EB7FBF5F506EAFA
:10350000C545D3F810693543C3F81059D3F810599D
:103510004E69C6F312063543C3F81059CD78012D14
:1035200010D01BE0D3F810692E40C3F81069D3F80F
:10353000105945F40025C3F81059D3F810596FF30A
:10354000120509E0D3F8105925F0C045C3F8105909
:10355000D3F8105945F00055C3F81059012A18D076
:1035600000EB4413D3F8004944F00444C3F8004985
:10357000CC78012C2FD04A6962B3D0F8342809786E
:1035800001F00F03012199400A43C0F8342860E09C
:1035900036E00A691AB100EB4413C3F81429C9785C
:1035A00001290FD1D0F80818C90500EB4411D1F852
:1035B000002903D442F0005202E030E042F0805291
:1035C000C1F8002900EB4410D0F8001941F0044183
:1035D000C0F800193DE0D0F80848E405D3F80049E8
:1035E00002D444F0005401E044F08054C3F8004990
:1035F00000928A8A93B20A78C96800F03FF928E0FD
:10360000D3F8104B8D68C5F312052C43C3F8104B4B
:10361000D3F8104B44F40024C3F8104B59E7CA68A0
:103620000AB1C3F8142BC97801290CD1D0F80808C5
:10363000C005D3F8000B02D440F0005001E040F088
:103640008050C3F8000BD3F8000B40F00440C3F8DF
:10365000000B0020F8BD0000FFFF07E0816841F08B
:103660000101816000207047002110220261054A9B
:10367000491C914201D9032070470369DB06F7D446
:1036800000207047400D03000022202343EA8111EF
:1036900001610549521C8A4201D903207047036920
:1036A0009B06F7D400207047400D0300D0F80808AF
:1036B00010F0060004D0022803D0062801D00F2005
:1036C000704702207047406900F001007047D0F851
:1036D0001818D0F81C08084080B27047D0F81818A5
:1036E000D0F81C080840000C704710B5D0F810380E
:1036F000D0F8342801F00F0400EB4110E24002F052
:103700000102D0F8080943EAC212104010BD00EBD4
:103710004111D1F8081BD0F81408084070474169DE
:10372000806908407047D21C10B59308002200F54C
:10373000805002E00468521C10C19A42FAD3084635
:1037400010BD10B5C26822F0C042C260012902D08B
:1037500029B1012010BDC16841F0005102E0C168EB
:1037600041F08041C1603220FDF73AF8002010BDE1
:10377000D0F8002822F4FE62C0F80028D0F8002813
:103780004FF4FE6303EA01110A43C0F80028002049
:1037900070470000022A3ED1264A274B0A449A422B
:1037A00001D20F2138E0254A254B0A449A4201D222
:1037B0000E2131E0234A244B0A449A4201D20D21C2
:1037C0002AE0224A224B0A449A4201D20C2123E0E9
:1037D000204A214B0A449A4201D20B211CE01F4A85
:1037E0001F4B0A449A4201D20A2115E01D4A1E4B82
:1037F0000A449A420FD31D4A1D4B0A449A4201D2F1
:10380000082109E01B4A11441B4A914201D20721B9
:1038100002E0062100E00921C26822F47052C26071
:10382000C2684FF4705303EA81210A43C26000204A
:1038300070470000405327FF00350C00401E1BFF5F
:1038400040420F0000DC0BFF804F1200808CF9FE1D
:1038500020D6130060B6E5FE60E3160000D3CEFE6E
:1038600040771B00C05BB3FEC091210000CA91FEEF
:1038700020753800E05459FEE09C410010B5029CD0
:1038800064B9DB1C9C0800EB0230002300F580507B
:1038900002E004C902605B1CA342FAD3002010BD01
:1038A000FEE700002DE9F0411A4F04464FF4007680
:1038B000002231463846FDF71EF9012000F079F864
:1038C00000254FF4807800BF04F0800080281FD0CE
:1038D000002241463846FDF70EF9012000F069F854
:1038E0006006040E012231463846FDF704F9012036
:1038F00000F05FF8002231463846FDF7FCF8012061
:1039000000F057F86D1CEDB2082DDDD3BDE8F08155
:103910000122DEE70004024010B50446FEF7F4F988
:103920007820FFF7BFFFFEF737FA0020FFF7BAFF56
:10393000FEF732FA2046FFF7B5FFFEF72DFABDE895
:103940001040FEF709BA10B50446FEF7DDF97820FD
:10395000FFF7A8FFFEF720FA4020FFF7A3FFFEF7CE
:103960001BFA2046FFF79EFFFEF716FABDE810404F
:10397000FEF7F2B90907090E002804DB00F1E02088
:1039800080F80014704700F00F0000F1E02080F88C
:10399000141D704702E008C8121F08C1002AFAD19E
:1039A00070477047002001E001C1121F002AFBD1BF
:1039B000704700EB80004000401EFDD270470000C1
:1039C00010B5002821D0114B0022001F196803E018
:1039D000814203D80A4649680029F9D152B11368D7
:1039E000841A9C4204D1006818441060104602E01A
:1039F000506000E0186039B102680B1A934203D19D
:103A00000B681A4402604968416010BDF000002054
:103A10000025FDF783F8FEF793FBFEF7DBF8294C52
:103A2000012211462046FDF766F803E03220FCF73C
:103A3000D7FE6D1C02212046FDF758F80028F5D06E
:103A40003C2D17DBFEF7C0F9FEF740F900210823F3
:103A50001DA20846FEF78CFAFEF70CF9022120465B
:103A6000FDF744F80028F9D1002201212046FDF796
:103A700042F8FEE717480168174A1140B1F1005FAC
:103A800007D14168154A91605160006880F3088849
:103A90008847FEF799F9FEF719F9002108230AA2D1
:103AA0000846FEF765FAFEF7E5F802212046FDF725
:103AB0001DF80028F9D1002201212046FDF71BF84E
:103AC000FEE7000000040240444655204D6F646547
:103AD0002E2E2E00008000080000FE2F0000002087
:103AE000F0B50B30154D20F007010024144A0FE00B
:103AF00003688B420BD38B4205D95E1A4318476883
:103B0000C3E9006700E04368136002C004E0021DDF
:103B100010680028ECD12046002802D1286808B19E
:103B20000020F0BD064A07481060074A121A22F02A
:103B30000702C0E9002401202860D7E7F400002034
:103B4000F0000020F40A0020F08A002000000000AD
:103B5000000000000102030406070809000000003D
:103B600000000000002F0000000007000700001404
:103B70007F147F1400242A7F2A1200626408132312
:103B800000364955225000000503000000001C22A9
:103B90004100000041221C000014083E08140008E7
:103BA000083E0808000000A0600000080808080897
:103BB000000060600000002010080402003E51492F
:103BC000453E0000427F40000042615149460021CD
:103BD00041454B31001814127F10002745454539E7
:103BE000003C4A4949300001710905030036494942
:103BF000493600064949291E0000363600000000FB
:103C00005636000000081422410000141414141445
:103C100000004122140800020151090600324959EE
:103C2000513E007C1211127C007F49494936003E0A
:103C300041414122007F4141221C007F49494941C5
:103C4000007F09090901003E4149497A007F0808BF
:103C5000087F0000417F4100002040413F01007F7C
:103C600008142241007F40404040007F020C027F48
:103C7000007F0408107F003E4141413E007F09095A
:103C80000906003E4151215E007F09192946004680
:103C9000494949310001017F0101003F4040403F57
:103CA000001F2040201F003F4038403F00631408A1
:103CB000146300070870080700615149454300007C
:103CC0007F41410000552A552A55000041417F009F
:103CD0000004020102040040404040400000010294
:103CE0000400002054545478007F4844443800387D
:103CF0004444442000384444487F00385454541805
:103D000000087E0901020018A4A4A47C007F080416
:103D100004780000447D4000004080847D00007FE6
:103D2000102844000000417F4000007C0418047803
:103D3000007C0804047800384444443800FC2424FF
:103D400024180018242418FC007C080404080048E7
:103D50005454542000043F444020003C4040207C08
:103D6000001C2040201C003C4030403C00442810F7
:103D70002844001CA0A0A07C004464544C441414AB
:103D800014141414000000000000000000000000E3
:103D900000000000000000F80000000000000033F8
:103DA0003000000000100C06100C0600000000009F
:103DB0000000000040C07840C0784000043F040488
:103DC0003F040400007088FC08300000001820FF49
:103DD000211E0000F008F000E018000000211C0384
:103DE0001E211E0000F00888700000001E21232400
:103DF0001927211010160E0000000000000000001E
:103E000000000000000000E01804020000000007AD
:103E10001820400000020418E000000000402018B4
:103E200007000000404080F0804040000202010F87
:103E300001020200000000F0000000000101011F6B
:103E400001010100000000000000000080B07000CF
:103E5000000000000000000000000000000101015F
:103E600001010101000000000000000000303000EE
:103E700000000000000000008060180400601806C8
:103E80000100000000E010080810E000000F102002
:103E900020100F00001010F8000000000020203F4C
:103EA00020200000007008080888700000302824D6
:103EB0002221300000300888884830000018202077
:103EC00020110E000000C02010F80000000704249C
:103ED000243F240000F808888808080000192120E1
:103EE00020110E0000E0108888180000000F11203B
:103EF00020110E0000380808C83808000000003FF4
:103F0000000000000070880808887000001C222152
:103F100021221C0000E010080810E00000003122FF
:103F200022110F00000000C0C0000000000000309F
:103F300030000000000000800000000000008060F1
:103F40000000000000008040201008000001020472
:103F50000810200040404040404040000404040459
:103F60000404040000081020408000000020100815
:103F700004020100007048080808F000000000304A
:103F800036010000C030C828E810E00007182724D8
:103F900023140B000000C038E0000000203C230286
:103FA0000227382008F8888888700000203F2020E9
:103FB00020110E00C030080808083800071820201B
:103FC0002010080008F808080810E000203F202012
:103FD00020100F0008F88888E8081000203F2020F3
:103FE0002320180008F88888E8081000203F2000E7
:103FF00003000000C030080808380000071820201F
:10400000221E020008F808000008F808203F2101DD
:1040100001213F20000808F8080800000020203F88
:104020002020000000000808F8080800C0808080F8
:104030007F00000008F888C028180800203F2001F1
:104040002638200008F8080000000000203F20204B
:104050002020300008F8F800F8F80800203F003F62
:10406000003F200008F830C00008F808203F20007A
:1040700007183F00E01008080810E0000F1020208B
:1040800020100F0008F808080808F000203F210160
:1040900001010000E01008080810E0000F182424B7
:1040A00038504F0008F8888888887000203F20002A
:1040B000030C3020007088080808380000382021E0
:1040C00021221C00180808F8080818000000203FEA
:1040D0002000000008F808000008F808001F202051
:1040E00020201F000878880000C838080000073822
:1040F0000E010000F80800F80008F800033C070073
:10410000073C0300081868808068180820302C03DA
:10411000032C30200838C800C83808000000203FB1
:104120002000000010080808C838080020382621A0
:1041300020201800000000FE020202000000007FA4
:1041400040404000000C30C00000000000000001B2
:104150000638C00000020202FE000000004040409D
:104160007F000000000004020202040000000000C2
:10417000000000000000000000000000808080803F
:104180008080808000020204000000000000000027
:1041900000000000000080808080000000192422C0
:1041A00022223F2008F8008080000000003F1120FC
:1041B00020110E000000008080800000000E112001
:1041C00020201100000000808088F800000E1120DF
:1041D00020103F200000808080800000001F2222ED
:1041E00022221300008080F0888888180020203F59
:1041F000202000000000808080808000006B94946C
:104200009493600008F8008080800000203F210027
:1042100000203F2000809898000000000020203FF0
:1042200020200000000000809898000000C08080DE
:10423000807F000008F8000080808000203F24027A
:104240002D302000000808F8000000000020203F6A
:10425000202000008080808080808000203F20001F
:104260003F20003F8080008080800000203F2100B0
:1042700000203F200000808080800000001F202060
:1042800020201F00808000808000000080FFA1208F
:1042900020110E000000008080808000000E1120A0
:1042A00020A0FF80808080008080800020203F212F
:1042B00020000100000080808080800000332424E2
:1042C00024241900008080E0808000000000001F8E
:1042D000202000008080000000808000001F20203F
:1042E00020103F20808080000080808000010E3000
:1042F0000806010080800080008080800F300C0361
:104300000C300F0000808000808080000020312E63
:104310000E312000808080000080808080818E703F
:104320001806010000808080808080000021302CF1
:104330002221300000000000807C0202000000000A
:10434000003F404000000000FF00000000000000AF
:10435000FF0000000002027C800000000040403F9F
:104360000000000000060101020204040000000039
:104370000000000040496E7465726E616C20466CEE
:104380006173682020202F30783038303030303062
:10439000302F30322A3031364B612C30322A3031D6
:1043A000364B672C30312A3036344B672C30332A69
:1043B0003132384B67000000D8430008000000206D
:1043C000F800000094390008D0440008F8000020EC
:1043D000F8990000A4390008000000000000000067
:1043E00000000000B1250008E1250008ED250008C7
:1043F000152600084926000891250008BD2500085B
:10440000040309041201000200000040830411DFCC
:1044100000020102030100001A0300000000000076
:10442000000000000000000000000000000000008C
:104430000000000074430008711B0008B11A000856
:10444000BD1A00089D1B0008851B0008651B00089D
:104450000100000010000000000000000024F40033
:1044600000000000D123000887220008352400083E
:10447000C9220008C522000800000000000000005A
:104480002F2400080000000000000000992300080D
:104490009923000899230008A5230008B1230008E8
:1044A00009021B00010102C0320904000000FE01E4
:1044B000020609210BFF0000041A01000A0600028F
:1044C00000000040010000000000000000000000AB
:040000050800019955
:00000001FF
